{
  "contractName": "CryptoCityMain",
  "abi": [
    {
      "anonymous": false,
      "inputs": [
        {
          "indexed": false,
          "internalType": "address",
          "name": "message",
          "type": "address"
        }
      ],
      "name": "Log",
      "type": "event"
    },
    {
      "anonymous": false,
      "inputs": [
        {
          "indexed": true,
          "internalType": "address",
          "name": "previousOwner",
          "type": "address"
        },
        {
          "indexed": true,
          "internalType": "address",
          "name": "newOwner",
          "type": "address"
        }
      ],
      "name": "OwnershipTransferred",
      "type": "event"
    },
    {
      "inputs": [
        {
          "internalType": "address",
          "name": "account",
          "type": "address"
        }
      ],
      "name": "balanceOf",
      "outputs": [
        {
          "internalType": "uint256",
          "name": "",
          "type": "uint256"
        }
      ],
      "stateMutability": "view",
      "type": "function"
    },
    {
      "inputs": [],
      "name": "decimals",
      "outputs": [
        {
          "internalType": "uint8",
          "name": "",
          "type": "uint8"
        }
      ],
      "stateMutability": "view",
      "type": "function"
    },
    {
      "inputs": [
        {
          "internalType": "address",
          "name": "account",
          "type": "address"
        }
      ],
      "name": "includeAccount",
      "outputs": [],
      "stateMutability": "nonpayable",
      "type": "function"
    },
    {
      "inputs": [
        {
          "internalType": "address",
          "name": "account",
          "type": "address"
        }
      ],
      "name": "isExcluded",
      "outputs": [
        {
          "internalType": "bool",
          "name": "",
          "type": "bool"
        }
      ],
      "stateMutability": "view",
      "type": "function"
    },
    {
      "inputs": [],
      "name": "name",
      "outputs": [
        {
          "internalType": "string",
          "name": "",
          "type": "string"
        }
      ],
      "stateMutability": "view",
      "type": "function"
    },
    {
      "inputs": [],
      "name": "owner",
      "outputs": [
        {
          "internalType": "address",
          "name": "",
          "type": "address"
        }
      ],
      "stateMutability": "view",
      "type": "function"
    },
    {
      "inputs": [
        {
          "internalType": "uint256",
          "name": "tAmount",
          "type": "uint256"
        },
        {
          "internalType": "bool",
          "name": "deductTransferFee",
          "type": "bool"
        }
      ],
      "name": "reflectionFromToken",
      "outputs": [
        {
          "internalType": "uint256",
          "name": "",
          "type": "uint256"
        }
      ],
      "stateMutability": "view",
      "type": "function"
    },
    {
      "inputs": [],
      "name": "renounceOwnership",
      "outputs": [],
      "stateMutability": "nonpayable",
      "type": "function"
    },
    {
      "inputs": [],
      "name": "symbol",
      "outputs": [
        {
          "internalType": "string",
          "name": "",
          "type": "string"
        }
      ],
      "stateMutability": "view",
      "type": "function"
    },
    {
      "inputs": [
        {
          "internalType": "uint256",
          "name": "rAmount",
          "type": "uint256"
        }
      ],
      "name": "tokenFromReflection",
      "outputs": [
        {
          "internalType": "uint256",
          "name": "",
          "type": "uint256"
        }
      ],
      "stateMutability": "view",
      "type": "function"
    },
    {
      "inputs": [],
      "name": "totalFees",
      "outputs": [
        {
          "internalType": "uint256",
          "name": "",
          "type": "uint256"
        }
      ],
      "stateMutability": "view",
      "type": "function"
    },
    {
      "inputs": [],
      "name": "totalSupply",
      "outputs": [
        {
          "internalType": "uint256",
          "name": "",
          "type": "uint256"
        }
      ],
      "stateMutability": "view",
      "type": "function"
    },
    {
      "inputs": [
        {
          "internalType": "address",
          "name": "newOwner",
          "type": "address"
        }
      ],
      "name": "transferOwnership",
      "outputs": [],
      "stateMutability": "nonpayable",
      "type": "function"
    },
    {
      "inputs": [
        {
          "internalType": "address",
          "name": "tokenAddress",
          "type": "address"
        }
      ],
      "name": "setTokenAddress",
      "outputs": [],
      "stateMutability": "nonpayable",
      "type": "function"
    },
    {
      "inputs": [
        {
          "internalType": "address",
          "name": "cityAddress",
          "type": "address"
        }
      ],
      "name": "getMap",
      "outputs": [
        {
          "internalType": "string",
          "name": "map",
          "type": "string"
        }
      ],
      "stateMutability": "view",
      "type": "function"
    },
    {
      "inputs": [
        {
          "internalType": "address",
          "name": "cityAddress",
          "type": "address"
        }
      ],
      "name": "getStakedAmount",
      "outputs": [
        {
          "internalType": "uint256",
          "name": "",
          "type": "uint256"
        }
      ],
      "stateMutability": "nonpayable",
      "type": "function"
    },
    {
      "inputs": [
        {
          "internalType": "uint256",
          "name": "amount",
          "type": "uint256"
        }
      ],
      "name": "setPresale",
      "outputs": [],
      "stateMutability": "nonpayable",
      "type": "function"
    },
    {
      "inputs": [],
      "name": "purchasePresale",
      "outputs": [],
      "stateMutability": "payable",
      "type": "function"
    },
    {
      "inputs": [],
      "name": "claimPresaleEarnings",
      "outputs": [],
      "stateMutability": "nonpayable",
      "type": "function"
    },
    {
      "inputs": [
        {
          "internalType": "uint256",
          "name": "amount",
          "type": "uint256"
        },
        {
          "internalType": "string",
          "name": "newMap",
          "type": "string"
        }
      ],
      "name": "stake",
      "outputs": [],
      "stateMutability": "nonpayable",
      "type": "function"
    },
    {
      "inputs": [
        {
          "internalType": "uint256",
          "name": "amount",
          "type": "uint256"
        },
        {
          "internalType": "string",
          "name": "newMap",
          "type": "string"
        }
      ],
      "name": "withdrawl",
      "outputs": [],
      "stateMutability": "nonpayable",
      "type": "function"
    }
  ],
  "bytecode": "0x60806040526c7e37be2022c0914b268000000060055560055460001962000027919062000a5f565b60001962000036919062000996565b6006556040518060400160405280601981526020017f5374616b65642043727970746f204369747920546f6b656e730000000000000081525060089080519060200190620000869291906200080b565b506040518060400160405280600581526020017f734349545900000000000000000000000000000000000000000000000000000081525060099080519060200190620000d49291906200080b565b506012600a60006101000a81548160ff021916908360ff1602179055506000600c553480156200010357600080fd5b506000620001166200021160201b60201c565b9050806000806101000a81548173ffffffffffffffffffffffffffffffffffffffff021916908373ffffffffffffffffffffffffffffffffffffffff1602179055508073ffffffffffffffffffffffffffffffffffffffff16600073ffffffffffffffffffffffffffffffffffffffff167f8be0079c531659141344cd1fd0a4f28419497f9722a3daafe3b4186f6b6457e060405160405180910390a350600654600160003073ffffffffffffffffffffffffffffffffffffffff1673ffffffffffffffffffffffffffffffffffffffff168152602001908152602001600020819055506200020b306200021960201b60201c565b62000bcb565b600033905090565b600360008273ffffffffffffffffffffffffffffffffffffffff1673ffffffffffffffffffffffffffffffffffffffff16815260200190815260200160002060009054906101000a900460ff1615620002a9576040517f08c379a0000000000000000000000000000000000000000000000000000000008152600401620002a0906200092b565b60405180910390fd5b6000600160008373ffffffffffffffffffffffffffffffffffffffff1673ffffffffffffffffffffffffffffffffffffffff168152602001908152602001600020541115620003865762000342600160008373ffffffffffffffffffffffffffffffffffffffff1673ffffffffffffffffffffffffffffffffffffffff168152602001908152602001600020546200044460201b60201c565b600260008373ffffffffffffffffffffffffffffffffffffffff1673ffffffffffffffffffffffffffffffffffffffff168152602001908152602001600020819055505b6001600360008373ffffffffffffffffffffffffffffffffffffffff1673ffffffffffffffffffffffffffffffffffffffff16815260200190815260200160002060006101000a81548160ff0219169083151502179055506004819080600181540180825580915050600190039060005260206000200160009091909190916101000a81548173ffffffffffffffffffffffffffffffffffffffff021916908373ffffffffffffffffffffffffffffffffffffffff16021790555050565b60006006548211156200048e576040517f08c379a0000000000000000000000000000000000000000000000000000000008152600401620004859062000909565b60405180910390fd5b6000620004a0620004c460201b60201c565b9050620004bc8184620004fe60201b620017691790919060201c565b915050919050565b6000806000620004d96200051660201b60201c565b91509150620004f78183620004fe60201b620017691790919060201c565b9250505090565b600081836200050e91906200095e565b905092915050565b600080600060065490506000600554905060005b600480549050811015620007ad5782600160006004848154811062000554576200055362000b24565b5b9060005260206000200160009054906101000a900473ffffffffffffffffffffffffffffffffffffffff1673ffffffffffffffffffffffffffffffffffffffff1673ffffffffffffffffffffffffffffffffffffffff168152602001908152602001600020541180620006465750816002600060048481548110620005de57620005dd62000b24565b5b9060005260206000200160009054906101000a900473ffffffffffffffffffffffffffffffffffffffff1673ffffffffffffffffffffffffffffffffffffffff1673ffffffffffffffffffffffffffffffffffffffff16815260200190815260200160002054115b156200065f5760065460055494509450505050620007ef565b620006f960016000600484815481106200067e576200067d62000b24565b5b9060005260206000200160009054906101000a900473ffffffffffffffffffffffffffffffffffffffff1673ffffffffffffffffffffffffffffffffffffffff1673ffffffffffffffffffffffffffffffffffffffff1681526020019081526020016000205484620007f360201b6200177f1790919060201c565b92506200079560026000600484815481106200071a576200071962000b24565b5b9060005260206000200160009054906101000a900473ffffffffffffffffffffffffffffffffffffffff1673ffffffffffffffffffffffffffffffffffffffff1673ffffffffffffffffffffffffffffffffffffffff1681526020019081526020016000205483620007f360201b6200177f1790919060201c565b91508080620007a49062000a11565b9150506200052a565b50620007cc600554600654620004fe60201b620017691790919060201c565b821015620007e657600654600554935093505050620007ef565b81819350935050505b9091565b6000818362000803919062000996565b905092915050565b8280546200081990620009db565b90600052602060002090601f0160209004810192826200083d576000855562000889565b82601f106200085857805160ff191683800117855562000889565b8280016001018555821562000889579182015b82811115620008885782518255916020019190600101906200086b565b5b5090506200089891906200089c565b5090565b5b80821115620008b75760008160009055506001016200089d565b5090565b6000620008ca602a836200094d565b9150620008d78262000b53565b604082019050919050565b6000620008f1601b836200094d565b9150620008fe8262000ba2565b602082019050919050565b600060208201905081810360008301526200092481620008bb565b9050919050565b600060208201905081810360008301526200094681620008e2565b9050919050565b600082825260208201905092915050565b60006200096b82620009d1565b91506200097883620009d1565b9250826200098b576200098a62000ac6565b5b828204905092915050565b6000620009a382620009d1565b9150620009b083620009d1565b925082821015620009c657620009c562000a97565b5b828203905092915050565b6000819050919050565b60006002820490506001821680620009f457607f821691505b6020821081141562000a0b5762000a0a62000af5565b5b50919050565b600062000a1e82620009d1565b91507fffffffffffffffffffffffffffffffffffffffffffffffffffffffffffffffff82141562000a545762000a5362000a97565b5b600182019050919050565b600062000a6c82620009d1565b915062000a7983620009d1565b92508262000a8c5762000a8b62000ac6565b5b828206905092915050565b7f4e487b7100000000000000000000000000000000000000000000000000000000600052601160045260246000fd5b7f4e487b7100000000000000000000000000000000000000000000000000000000600052601260045260246000fd5b7f4e487b7100000000000000000000000000000000000000000000000000000000600052602260045260246000fd5b7f4e487b7100000000000000000000000000000000000000000000000000000000600052603260045260246000fd5b7f416d6f756e74206d757374206265206c657373207468616e20746f74616c207260008201527f65666c656374696f6e7300000000000000000000000000000000000000000000602082015250565b7f4163636f756e7420697320616c7265616479206578636c756465640000000000600082015250565b6135fb8062000bdb6000396000f3fe60806040526004361061012a5760003560e01c80634da6a556116100ab5780638da5cb5b1161006f5780638da5cb5b146103bf57806395d89b41146103ea578063cba0e99614610415578063e7e4e1f714610452578063f2fde38b1461047b578063f84354f1146104a45761012a565b80634da6a556146102ee5780636d18703b1461032b57806370a0823114610354578063715018a6146103915780638d708424146103a85761012a565b806326a4e8d2116100f257806326a4e8d2146102165780632d8381191461023f578063313ce5671461027c578063332af485146102a75780634549b039146102b15761012a565b806306fdde031461012f57806313114a9d1461015a57806318160ddd146101855780631947bd2f146101b05780631d5fa38b146101ed575b600080fd5b34801561013b57600080fd5b506101446104cd565b6040516101519190612d3e565b60405180910390f35b34801561016657600080fd5b5061016f61055f565b60405161017c9190612ec0565b60405180910390f35b34801561019157600080fd5b5061019a610569565b6040516101a79190612ec0565b60405180910390f35b3480156101bc57600080fd5b506101d760048036038101906101d29190612939565b610573565b6040516101e49190612d3e565b60405180910390f35b3480156101f957600080fd5b50610214600480360381019061020f9190612a2d565b610644565b005b34801561022257600080fd5b5061023d60048036038101906102389190612939565b6107a9565b005b34801561024b57600080fd5b5061026660048036038101906102619190612993565b6107ed565b6040516102739190612ec0565b60405180910390f35b34801561028857600080fd5b5061029161085b565b60405161029e9190612edb565b60405180910390f35b6102af610872565b005b3480156102bd57600080fd5b506102d860048036038101906102d391906129ed565b610994565b6040516102e59190612ec0565b60405180910390f35b3480156102fa57600080fd5b5061031560048036038101906103109190612939565b610a16565b6040516103229190612ec0565b60405180910390f35b34801561033757600080fd5b50610352600480360381019061034d9190612993565b610a28565b005b34801561036057600080fd5b5061037b60048036038101906103769190612939565b610c67565b6040516103889190612ec0565b60405180910390f35b34801561039d57600080fd5b506103a6610d52565b005b3480156103b457600080fd5b506103bd610e8c565b005b3480156103cb57600080fd5b506103d4610f6e565b6040516103e19190612c7f565b60405180910390f35b3480156103f657600080fd5b506103ff610f97565b60405161040c9190612d3e565b60405180910390f35b34801561042157600080fd5b5061043c60048036038101906104379190612939565b611029565b6040516104499190612d23565b60405180910390f35b34801561045e57600080fd5b5061047960048036038101906104749190612a2d565b61107f565b005b34801561048757600080fd5b506104a2600480360381019061049d9190612939565b61128a565b005b3480156104b057600080fd5b506104cb60048036038101906104c69190612939565b611433565b005b6060600880546104dc90613114565b80601f016020809104026020016040519081016040528092919081815260200182805461050890613114565b80156105555780601f1061052a57610100808354040283529160200191610555565b820191906000526020600020905b81548152906001019060200180831161053857829003601f168201915b5050505050905090565b6000600754905090565b6000600554905090565b6060600b60008373ffffffffffffffffffffffffffffffffffffffff1673ffffffffffffffffffffffffffffffffffffffff16815260200190815260200160002080546105bf90613114565b80601f01602080910402602001604051908101604052809291908181526020018280546105eb90613114565b80156106385780601f1061060d57610100808354040283529160200191610638565b820191906000526020600020905b81548152906001019060200180831161061b57829003601f168201915b50505050509050919050565b600061064f33610c67565b905082811015610694576040517f08c379a000000000000000000000000000000000000000000000000000000000815260040161068b90612ea0565b60405180910390fd5b61069f333085611795565b50600a60019054906101000a900473ffffffffffffffffffffffffffffffffffffffff1673ffffffffffffffffffffffffffffffffffffffff1663a9059cbb33856040518363ffffffff1660e01b81526004016106fd929190612cfa565b602060405180830381600087803b15801561071757600080fd5b505af115801561072b573d6000803e3d6000fd5b505050506040513d601f19601f8201168201806040525081019061074f9190612966565b5081600b60003373ffffffffffffffffffffffffffffffffffffffff1673ffffffffffffffffffffffffffffffffffffffff16815260200190815260200160002090805190602001906107a39291906127bd565b50505050565b80600a60016101000a81548173ffffffffffffffffffffffffffffffffffffffff021916908373ffffffffffffffffffffffffffffffffffffffff16021790555050565b6000600654821115610834576040517f08c379a000000000000000000000000000000000000000000000000000000000815260040161082b90612d80565b60405180910390fd5b600061083e6117ad565b9050610853818461176990919063ffffffff16565b915050919050565b6000600a60009054906101000a900460ff16905090565b60003460646108819190612fef565b905080600c5410156108c8576040517f08c379a00000000000000000000000000000000000000000000000000000000081526004016108bf90612e60565b60405180910390fd5b80600c60008282546108da9190613049565b92505081905550600a60019054906101000a900473ffffffffffffffffffffffffffffffffffffffff1673ffffffffffffffffffffffffffffffffffffffff1663a9059cbb33836040518363ffffffff1660e01b815260040161093e929190612cfa565b602060405180830381600087803b15801561095857600080fd5b505af115801561096c573d6000803e3d6000fd5b505050506040513d601f19601f820116820180604052508101906109909190612966565b5050565b60006005548311156109db576040517f08c379a00000000000000000000000000000000000000000000000000000000081526004016109d290612de0565b60405180910390fd5b816109fa5760006109eb846117d8565b50505050905080915050610a10565b6000610a05846117d8565b505050915050809150505b92915050565b6000610a2182610c67565b9050919050565b610a30611830565b73ffffffffffffffffffffffffffffffffffffffff16610a4e610f6e565b73ffffffffffffffffffffffffffffffffffffffff1614610aa4576040517f08c379a0000000000000000000000000000000000000000000000000000000008152600401610a9b90612e20565b60405180910390fd5b6000600a60019054906101000a900473ffffffffffffffffffffffffffffffffffffffff1673ffffffffffffffffffffffffffffffffffffffff1663dd62ed3e33306040518363ffffffff1660e01b8152600401610b03929190612c9a565b60206040518083038186803b158015610b1b57600080fd5b505afa158015610b2f573d6000803e3d6000fd5b505050506040513d601f19601f82011682018060405250810190610b5391906129c0565b905081811015610b98576040517f08c379a0000000000000000000000000000000000000000000000000000000008152600401610b8f90612e00565b60405180910390fd5b600a60019054906101000a900473ffffffffffffffffffffffffffffffffffffffff1673ffffffffffffffffffffffffffffffffffffffff166323b872dd3330856040518463ffffffff1660e01b8152600401610bf793929190612cc3565b602060405180830381600087803b158015610c1157600080fd5b505af1158015610c25573d6000803e3d6000fd5b505050506040513d601f19601f82011682018060405250810190610c499190612966565b5081600c6000828254610c5c9190612f68565b925050819055505050565b6000600360008373ffffffffffffffffffffffffffffffffffffffff1673ffffffffffffffffffffffffffffffffffffffff16815260200190815260200160002060009054906101000a900460ff1615610d0257600260008373ffffffffffffffffffffffffffffffffffffffff1673ffffffffffffffffffffffffffffffffffffffff168152602001908152602001600020549050610d4d565b610d4a600160008473ffffffffffffffffffffffffffffffffffffffff1673ffffffffffffffffffffffffffffffffffffffff168152602001908152602001600020546107ed565b90505b919050565b610d5a611830565b73ffffffffffffffffffffffffffffffffffffffff16610d78610f6e565b73ffffffffffffffffffffffffffffffffffffffff1614610dce576040517f08c379a0000000000000000000000000000000000000000000000000000000008152600401610dc590612e20565b60405180910390fd5b600073ffffffffffffffffffffffffffffffffffffffff1660008054906101000a900473ffffffffffffffffffffffffffffffffffffffff1673ffffffffffffffffffffffffffffffffffffffff167f8be0079c531659141344cd1fd0a4f28419497f9722a3daafe3b4186f6b6457e060405160405180910390a360008060006101000a81548173ffffffffffffffffffffffffffffffffffffffff021916908373ffffffffffffffffffffffffffffffffffffffff160217905550565b610e94611830565b73ffffffffffffffffffffffffffffffffffffffff16610eb2610f6e565b73ffffffffffffffffffffffffffffffffffffffff1614610f08576040517f08c379a0000000000000000000000000000000000000000000000000000000008152600401610eff90612e20565b60405180910390fd5b60003390508073ffffffffffffffffffffffffffffffffffffffff166108fc8273ffffffffffffffffffffffffffffffffffffffff16319081150290604051600060405180830381858888f19350505050158015610f6a573d6000803e3d6000fd5b5050565b60008060009054906101000a900473ffffffffffffffffffffffffffffffffffffffff16905090565b606060098054610fa690613114565b80601f0160208091040260200160405190810160405280929190818152602001828054610fd290613114565b801561101f5780601f10610ff45761010080835404028352916020019161101f565b820191906000526020600020905b81548152906001019060200180831161100257829003601f168201915b5050505050905090565b6000600360008373ffffffffffffffffffffffffffffffffffffffff1673ffffffffffffffffffffffffffffffffffffffff16815260200190815260200160002060009054906101000a900460ff169050919050565b6000600a60019054906101000a900473ffffffffffffffffffffffffffffffffffffffff1673ffffffffffffffffffffffffffffffffffffffff1663dd62ed3e33306040518363ffffffff1660e01b81526004016110de929190612c9a565b60206040518083038186803b1580156110f657600080fd5b505afa15801561110a573d6000803e3d6000fd5b505050506040513d601f19601f8201168201806040525081019061112e91906129c0565b905082811015611173576040517f08c379a000000000000000000000000000000000000000000000000000000000815260040161116a90612e00565b60405180910390fd5b600a60019054906101000a900473ffffffffffffffffffffffffffffffffffffffff1673ffffffffffffffffffffffffffffffffffffffff166323b872dd3330866040518463ffffffff1660e01b81526004016111d293929190612cc3565b602060405180830381600087803b1580156111ec57600080fd5b505af1158015611200573d6000803e3d6000fd5b505050506040513d601f19601f820116820180604052508101906112249190612966565b5081600b60003373ffffffffffffffffffffffffffffffffffffffff1673ffffffffffffffffffffffffffffffffffffffff16815260200190815260200160002090805190602001906112789291906127bd565b50611284303385611795565b50505050565b611292611830565b73ffffffffffffffffffffffffffffffffffffffff166112b0610f6e565b73ffffffffffffffffffffffffffffffffffffffff1614611306576040517f08c379a00000000000000000000000000000000000000000000000000000000081526004016112fd90612e20565b60405180910390fd5b600073ffffffffffffffffffffffffffffffffffffffff168173ffffffffffffffffffffffffffffffffffffffff161415611376576040517f08c379a000000000000000000000000000000000000000000000000000000000815260040161136d90612da0565b60405180910390fd5b8073ffffffffffffffffffffffffffffffffffffffff1660008054906101000a900473ffffffffffffffffffffffffffffffffffffffff1673ffffffffffffffffffffffffffffffffffffffff167f8be0079c531659141344cd1fd0a4f28419497f9722a3daafe3b4186f6b6457e060405160405180910390a3806000806101000a81548173ffffffffffffffffffffffffffffffffffffffff021916908373ffffffffffffffffffffffffffffffffffffffff16021790555050565b61143b611830565b73ffffffffffffffffffffffffffffffffffffffff16611459610f6e565b73ffffffffffffffffffffffffffffffffffffffff16146114af576040517f08c379a00000000000000000000000000000000000000000000000000000000081526004016114a690612e20565b60405180910390fd5b600360008273ffffffffffffffffffffffffffffffffffffffff1673ffffffffffffffffffffffffffffffffffffffff16815260200190815260200160002060009054906101000a900460ff1661153b576040517f08c379a000000000000000000000000000000000000000000000000000000000815260040161153290612dc0565b60405180910390fd5b60005b600480549050811015611765578173ffffffffffffffffffffffffffffffffffffffff16600482815481106115765761157561327c565b5b9060005260206000200160009054906101000a900473ffffffffffffffffffffffffffffffffffffffff1673ffffffffffffffffffffffffffffffffffffffff16141561175257600460016004805490506115d19190613049565b815481106115e2576115e161327c565b5b9060005260206000200160009054906101000a900473ffffffffffffffffffffffffffffffffffffffff16600482815481106116215761162061327c565b5b9060005260206000200160006101000a81548173ffffffffffffffffffffffffffffffffffffffff021916908373ffffffffffffffffffffffffffffffffffffffff1602179055506000600260008473ffffffffffffffffffffffffffffffffffffffff1673ffffffffffffffffffffffffffffffffffffffff168152602001908152602001600020819055506000600360008473ffffffffffffffffffffffffffffffffffffffff1673ffffffffffffffffffffffffffffffffffffffff16815260200190815260200160002060006101000a81548160ff02191690831515021790555060048054806117185761171761324d565b5b6001900381819060005260206000200160006101000a81549073ffffffffffffffffffffffffffffffffffffffff02191690559055611765565b808061175d90613177565b91505061153e565b5050565b600081836117779190612fbe565b905092915050565b6000818361178d9190613049565b905092915050565b60006117a2848484611838565b600190509392505050565b60008060006117ba611c4f565b915091506117d1818361176990919063ffffffff16565b9250505090565b60008060008060008060006117ec88611f02565b9150915060006117fa6117ad565b9050600080600061180c8c8686611f41565b92509250925082828288889a509a509a509a509a5050505050505091939590929450565b600033905090565b600073ffffffffffffffffffffffffffffffffffffffff168373ffffffffffffffffffffffffffffffffffffffff1614156118a8576040517f08c379a000000000000000000000000000000000000000000000000000000000815260040161189f90612e80565b60405180910390fd5b600073ffffffffffffffffffffffffffffffffffffffff168273ffffffffffffffffffffffffffffffffffffffff161415611918576040517f08c379a000000000000000000000000000000000000000000000000000000000815260040161190f90612d60565b60405180910390fd5b6000811161195b576040517f08c379a000000000000000000000000000000000000000000000000000000000815260040161195290612e40565b60405180910390fd5b600360008473ffffffffffffffffffffffffffffffffffffffff1673ffffffffffffffffffffffffffffffffffffffff16815260200190815260200160002060009054906101000a900460ff1680156119fe5750600360008373ffffffffffffffffffffffffffffffffffffffff1673ffffffffffffffffffffffffffffffffffffffff16815260200190815260200160002060009054906101000a900460ff16155b15611a1357611a0e838383611f9f565b611c4a565b600360008473ffffffffffffffffffffffffffffffffffffffff1673ffffffffffffffffffffffffffffffffffffffff16815260200190815260200160002060009054906101000a900460ff16158015611ab65750600360008373ffffffffffffffffffffffffffffffffffffffff1673ffffffffffffffffffffffffffffffffffffffff16815260200190815260200160002060009054906101000a900460ff165b15611acb57611ac683838361218d565b611c49565b600360008473ffffffffffffffffffffffffffffffffffffffff1673ffffffffffffffffffffffffffffffffffffffff16815260200190815260200160002060009054906101000a900460ff16158015611b6f5750600360008373ffffffffffffffffffffffffffffffffffffffff1673ffffffffffffffffffffffffffffffffffffffff16815260200190815260200160002060009054906101000a900460ff16155b15611b8457611b7f83838361237b565b611c48565b600360008473ffffffffffffffffffffffffffffffffffffffff1673ffffffffffffffffffffffffffffffffffffffff16815260200190815260200160002060009054906101000a900460ff168015611c265750600360008373ffffffffffffffffffffffffffffffffffffffff1673ffffffffffffffffffffffffffffffffffffffff16815260200190815260200160002060009054906101000a900460ff165b15611c3b57611c368383836124d4565b611c47565b611c4683838361237b565b5b5b5b5b505050565b600080600060065490506000600554905060005b600480549050811015611ec557826001600060048481548110611c8957611c8861327c565b5b9060005260206000200160009054906101000a900473ffffffffffffffffffffffffffffffffffffffff1673ffffffffffffffffffffffffffffffffffffffff1673ffffffffffffffffffffffffffffffffffffffff168152602001908152602001600020541180611d775750816002600060048481548110611d0f57611d0e61327c565b5b9060005260206000200160009054906101000a900473ffffffffffffffffffffffffffffffffffffffff1673ffffffffffffffffffffffffffffffffffffffff1673ffffffffffffffffffffffffffffffffffffffff16815260200190815260200160002054115b15611d8e5760065460055494509450505050611efe565b611e1e6001600060048481548110611da957611da861327c565b5b9060005260206000200160009054906101000a900473ffffffffffffffffffffffffffffffffffffffff1673ffffffffffffffffffffffffffffffffffffffff1673ffffffffffffffffffffffffffffffffffffffff168152602001908152602001600020548461177f90919063ffffffff16565b9250611eb06002600060048481548110611e3b57611e3a61327c565b5b9060005260206000200160009054906101000a900473ffffffffffffffffffffffffffffffffffffffff1673ffffffffffffffffffffffffffffffffffffffff1673ffffffffffffffffffffffffffffffffffffffff168152602001908152602001600020548361177f90919063ffffffff16565b91508080611ebd90613177565b915050611c63565b50611edd60055460065461176990919063ffffffff16565b821015611ef557600654600554935093505050611efe565b81819350935050505b9091565b6000806000611f1b60328561176990919063ffffffff16565b90506000611f32828661177f90919063ffffffff16565b90508082935093505050915091565b600080600080611f5a858861275790919063ffffffff16565b90506000611f71868861275790919063ffffffff16565b90506000611f88828461177f90919063ffffffff16565b905082818395509550955050505093509350939050565b6000806000806000611fb0866117d8565b9450945094509450945061200c86600260008b73ffffffffffffffffffffffffffffffffffffffff1673ffffffffffffffffffffffffffffffffffffffff1681526020019081526020016000205461177f90919063ffffffff16565b600260008a73ffffffffffffffffffffffffffffffffffffffff1673ffffffffffffffffffffffffffffffffffffffff168152602001908152602001600020819055506120a185600160008b73ffffffffffffffffffffffffffffffffffffffff1673ffffffffffffffffffffffffffffffffffffffff1681526020019081526020016000205461177f90919063ffffffff16565b600160008a73ffffffffffffffffffffffffffffffffffffffff1673ffffffffffffffffffffffffffffffffffffffff1681526020019081526020016000208190555061213684600160008a73ffffffffffffffffffffffffffffffffffffffff1673ffffffffffffffffffffffffffffffffffffffff1681526020019081526020016000205461276d90919063ffffffff16565b600160008973ffffffffffffffffffffffffffffffffffffffff1673ffffffffffffffffffffffffffffffffffffffff168152602001908152602001600020819055506121838382612783565b5050505050505050565b600080600080600061219e866117d8565b945094509450945094506121fa85600160008b73ffffffffffffffffffffffffffffffffffffffff1673ffffffffffffffffffffffffffffffffffffffff1681526020019081526020016000205461177f90919063ffffffff16565b600160008a73ffffffffffffffffffffffffffffffffffffffff1673ffffffffffffffffffffffffffffffffffffffff1681526020019081526020016000208190555061228f82600260008a73ffffffffffffffffffffffffffffffffffffffff1673ffffffffffffffffffffffffffffffffffffffff1681526020019081526020016000205461276d90919063ffffffff16565b600260008973ffffffffffffffffffffffffffffffffffffffff1673ffffffffffffffffffffffffffffffffffffffff1681526020019081526020016000208190555061232484600160008a73ffffffffffffffffffffffffffffffffffffffff1673ffffffffffffffffffffffffffffffffffffffff1681526020019081526020016000205461276d90919063ffffffff16565b600160008973ffffffffffffffffffffffffffffffffffffffff1673ffffffffffffffffffffffffffffffffffffffff168152602001908152602001600020819055506123718382612783565b5050505050505050565b600080600080600061238c866117d8565b945094509450945094506123e885600160008b73ffffffffffffffffffffffffffffffffffffffff1673ffffffffffffffffffffffffffffffffffffffff1681526020019081526020016000205461177f90919063ffffffff16565b600160008a73ffffffffffffffffffffffffffffffffffffffff1673ffffffffffffffffffffffffffffffffffffffff1681526020019081526020016000208190555061247d84600160008a73ffffffffffffffffffffffffffffffffffffffff1673ffffffffffffffffffffffffffffffffffffffff1681526020019081526020016000205461276d90919063ffffffff16565b600160008973ffffffffffffffffffffffffffffffffffffffff1673ffffffffffffffffffffffffffffffffffffffff168152602001908152602001600020819055506124ca8382612783565b5050505050505050565b60008060008060006124e5866117d8565b9450945094509450945061254186600260008b73ffffffffffffffffffffffffffffffffffffffff1673ffffffffffffffffffffffffffffffffffffffff1681526020019081526020016000205461177f90919063ffffffff16565b600260008a73ffffffffffffffffffffffffffffffffffffffff1673ffffffffffffffffffffffffffffffffffffffff168152602001908152602001600020819055506125d685600160008b73ffffffffffffffffffffffffffffffffffffffff1673ffffffffffffffffffffffffffffffffffffffff1681526020019081526020016000205461177f90919063ffffffff16565b600160008a73ffffffffffffffffffffffffffffffffffffffff1673ffffffffffffffffffffffffffffffffffffffff1681526020019081526020016000208190555061266b82600260008a73ffffffffffffffffffffffffffffffffffffffff1673ffffffffffffffffffffffffffffffffffffffff1681526020019081526020016000205461276d90919063ffffffff16565b600260008973ffffffffffffffffffffffffffffffffffffffff1673ffffffffffffffffffffffffffffffffffffffff1681526020019081526020016000208190555061270084600160008a73ffffffffffffffffffffffffffffffffffffffff1673ffffffffffffffffffffffffffffffffffffffff1681526020019081526020016000205461276d90919063ffffffff16565b600160008973ffffffffffffffffffffffffffffffffffffffff1673ffffffffffffffffffffffffffffffffffffffff1681526020019081526020016000208190555061274d8382612783565b5050505050505050565b600081836127659190612fef565b905092915050565b6000818361277b9190612f68565b905092915050565b6127988260065461177f90919063ffffffff16565b6006819055506127b38160075461276d90919063ffffffff16565b6007819055505050565b8280546127c990613114565b90600052602060002090601f0160209004810192826127eb5760008555612832565b82601f1061280457805160ff1916838001178555612832565b82800160010185558215612832579182015b82811115612831578251825591602001919060010190612816565b5b50905061283f9190612843565b5090565b5b8082111561285c576000816000905550600101612844565b5090565b600061287361286e84612f1b565b612ef6565b90508281526020810184848401111561288f5761288e6132df565b5b61289a8482856130d2565b509392505050565b6000813590506128b181613580565b92915050565b6000813590506128c681613597565b92915050565b6000815190506128db81613597565b92915050565b600082601f8301126128f6576128f56132da565b5b8135612906848260208601612860565b91505092915050565b60008135905061291e816135ae565b92915050565b600081519050612933816135ae565b92915050565b60006020828403121561294f5761294e6132e9565b5b600061295d848285016128a2565b91505092915050565b60006020828403121561297c5761297b6132e9565b5b600061298a848285016128cc565b91505092915050565b6000602082840312156129a9576129a86132e9565b5b60006129b78482850161290f565b91505092915050565b6000602082840312156129d6576129d56132e9565b5b60006129e484828501612924565b91505092915050565b60008060408385031215612a0457612a036132e9565b5b6000612a128582860161290f565b9250506020612a23858286016128b7565b9150509250929050565b60008060408385031215612a4457612a436132e9565b5b6000612a528582860161290f565b925050602083013567ffffffffffffffff811115612a7357612a726132e4565b5b612a7f858286016128e1565b9150509250929050565b612a928161307d565b82525050565b612aa18161308f565b82525050565b6000612ab282612f4c565b612abc8185612f57565b9350612acc8185602086016130e1565b612ad5816132ee565b840191505092915050565b6000612aed602383612f57565b9150612af8826132ff565b604082019050919050565b6000612b10602a83612f57565b9150612b1b8261334e565b604082019050919050565b6000612b33602683612f57565b9150612b3e8261339d565b604082019050919050565b6000612b56601b83612f57565b9150612b61826133ec565b602082019050919050565b6000612b79601f83612f57565b9150612b8482613415565b602082019050919050565b6000612b9c601183612f57565b9150612ba78261343e565b602082019050919050565b6000612bbf602083612f57565b9150612bca82613467565b602082019050919050565b6000612be2602983612f57565b9150612bed82613490565b604082019050919050565b6000612c05601583612f57565b9150612c10826134df565b602082019050919050565b6000612c28602583612f57565b9150612c3382613508565b604082019050919050565b6000612c4b601b83612f57565b9150612c5682613557565b602082019050919050565b612c6a816130bb565b82525050565b612c79816130c5565b82525050565b6000602082019050612c946000830184612a89565b92915050565b6000604082019050612caf6000830185612a89565b612cbc6020830184612a89565b9392505050565b6000606082019050612cd86000830186612a89565b612ce56020830185612a89565b612cf26040830184612c61565b949350505050565b6000604082019050612d0f6000830185612a89565b612d1c6020830184612c61565b9392505050565b6000602082019050612d386000830184612a98565b92915050565b60006020820190508181036000830152612d588184612aa7565b905092915050565b60006020820190508181036000830152612d7981612ae0565b9050919050565b60006020820190508181036000830152612d9981612b03565b9050919050565b60006020820190508181036000830152612db981612b26565b9050919050565b60006020820190508181036000830152612dd981612b49565b9050919050565b60006020820190508181036000830152612df981612b6c565b9050919050565b60006020820190508181036000830152612e1981612b8f565b9050919050565b60006020820190508181036000830152612e3981612bb2565b9050919050565b60006020820190508181036000830152612e5981612bd5565b9050919050565b60006020820190508181036000830152612e7981612bf8565b9050919050565b60006020820190508181036000830152612e9981612c1b565b9050919050565b60006020820190508181036000830152612eb981612c3e565b9050919050565b6000602082019050612ed56000830184612c61565b92915050565b6000602082019050612ef06000830184612c70565b92915050565b6000612f00612f11565b9050612f0c8282613146565b919050565b6000604051905090565b600067ffffffffffffffff821115612f3657612f356132ab565b5b612f3f826132ee565b9050602081019050919050565b600081519050919050565b600082825260208201905092915050565b6000612f73826130bb565b9150612f7e836130bb565b9250827fffffffffffffffffffffffffffffffffffffffffffffffffffffffffffffffff03821115612fb357612fb26131c0565b5b828201905092915050565b6000612fc9826130bb565b9150612fd4836130bb565b925082612fe457612fe36131ef565b5b828204905092915050565b6000612ffa826130bb565b9150613005836130bb565b9250817fffffffffffffffffffffffffffffffffffffffffffffffffffffffffffffffff048311821515161561303e5761303d6131c0565b5b828202905092915050565b6000613054826130bb565b915061305f836130bb565b925082821015613072576130716131c0565b5b828203905092915050565b60006130888261309b565b9050919050565b60008115159050919050565b600073ffffffffffffffffffffffffffffffffffffffff82169050919050565b6000819050919050565b600060ff82169050919050565b82818337600083830152505050565b60005b838110156130ff5780820151818401526020810190506130e4565b8381111561310e576000848401525b50505050565b6000600282049050600182168061312c57607f821691505b602082108114156131405761313f61321e565b5b50919050565b61314f826132ee565b810181811067ffffffffffffffff8211171561316e5761316d6132ab565b5b80604052505050565b6000613182826130bb565b91507fffffffffffffffffffffffffffffffffffffffffffffffffffffffffffffffff8214156131b5576131b46131c0565b5b600182019050919050565b7f4e487b7100000000000000000000000000000000000000000000000000000000600052601160045260246000fd5b7f4e487b7100000000000000000000000000000000000000000000000000000000600052601260045260246000fd5b7f4e487b7100000000000000000000000000000000000000000000000000000000600052602260045260246000fd5b7f4e487b7100000000000000000000000000000000000000000000000000000000600052603160045260246000fd5b7f4e487b7100000000000000000000000000000000000000000000000000000000600052603260045260246000fd5b7f4e487b7100000000000000000000000000000000000000000000000000000000600052604160045260246000fd5b600080fd5b600080fd5b600080fd5b600080fd5b6000601f19601f8301169050919050565b7f45524332303a207472616e7366657220746f20746865207a65726f206164647260008201527f6573730000000000000000000000000000000000000000000000000000000000602082015250565b7f416d6f756e74206d757374206265206c657373207468616e20746f74616c207260008201527f65666c656374696f6e7300000000000000000000000000000000000000000000602082015250565b7f4f776e61626c653a206e6577206f776e657220697320746865207a65726f206160008201527f6464726573730000000000000000000000000000000000000000000000000000602082015250565b7f4163636f756e7420697320616c7265616479206578636c756465640000000000600082015250565b7f416d6f756e74206d757374206265206c657373207468616e20737570706c7900600082015250565b7f416c6c6f77616e6365206e6f74206d6574000000000000000000000000000000600082015250565b7f4f776e61626c653a2063616c6c6572206973206e6f7420746865206f776e6572600082015250565b7f5472616e7366657220616d6f756e74206d75737420626520677265617465722060008201527f7468616e207a65726f0000000000000000000000000000000000000000000000602082015250565b7f50726573616c652066756e647320746f6f206c6f770000000000000000000000600082015250565b7f45524332303a207472616e736665722066726f6d20746865207a65726f20616460008201527f6472657373000000000000000000000000000000000000000000000000000000602082015250565b7f416d6f756e74206973206d6f7265207468616e2062616c616e63650000000000600082015250565b6135898161307d565b811461359457600080fd5b50565b6135a08161308f565b81146135ab57600080fd5b50565b6135b7816130bb565b81146135c257600080fd5b5056fea2646970667358221220f48ac86f753bcfba140f90d1f0fc66f69e237572ce43cb1032021e10852d75b464736f6c63430008050033",
  "immutableReferences": {},
  "source": "// SPDX-License-Identifier: MIT\r\npragma solidity ^0.8.0;\r\n\r\nimport \"./REFLECT.sol\";\r\nimport \"./CryptoCityToken.sol\";\r\n\r\ncontract CryptoCityMain is REFLECT {\r\n    CryptoCityToken cryptoCityToken;\r\n\r\n    mapping(address => string) cityMaps;\r\n\r\n    uint256 presaleAmount = 0;\r\n\r\n    event Log ( address message );\r\n\r\n    // Constructor overrides default keeping tokens for contract\r\n    function setTokenAddress(address tokenAddress) public {\r\n        cryptoCityToken = CryptoCityToken(tokenAddress);\r\n    }\r\n\r\n    function getMap(address cityAddress)\r\n        public\r\n        view\r\n        returns (string memory map)\r\n    {\r\n        map = cityMaps[cityAddress];\r\n    }\r\n\r\n    function getStakedAmount(address cityAddress) public returns (uint) {\r\n        return balanceOf(cityAddress);\r\n    }\r\n\r\n    function setPresale(uint256 amount) public onlyOwner() {\r\n        // Take CITY\r\n        uint256 allowance = cryptoCityToken.allowance(msg.sender, address(this));\r\n        require(allowance >= amount, \"Allowance not met\");\r\n        cryptoCityToken.transferFrom(msg.sender, address(this), amount);\r\n        presaleAmount += amount;\r\n    }\r\n\r\n    function purchasePresale() public payable {\r\n        // Convert ETH for CITY\r\n        uint cityAmount = 100 * msg.value;\r\n        require(presaleAmount >= cityAmount, \"Presale funds too low\");\r\n        presaleAmount -= cityAmount;\r\n        cryptoCityToken.transfer(msg.sender, cityAmount);\r\n    }\r\n\r\n    function claimPresaleEarnings() public onlyOwner() {\r\n        address payable sender = payable(address(msg.sender));\r\n        sender.transfer(sender.balance);\r\n    }\r\n\r\n    function stake(uint256 amount, string memory newMap) public {\r\n        // Take CITY\r\n        uint256 allowance =\r\n            cryptoCityToken.allowance(msg.sender, address(this));\r\n        require(allowance >= amount, \"Allowance not met\");\r\n        cryptoCityToken.transferFrom(msg.sender, address(this), amount);\r\n        // Update Map\r\n        cityMaps[msg.sender] = newMap;\r\n        // Give sCITY\r\n        transferFrom(address(this), msg.sender, amount);\r\n    }\r\n\r\n    function withdrawl(uint256 amount, string memory newMap) public {\r\n        // Take sCITY\r\n        uint balance = balanceOf(msg.sender);\r\n        require(balance >= amount, \"Amount is more than balance\");\r\n        transferFrom(msg.sender, address(this), amount);\r\n        // Give CITY\r\n        cryptoCityToken.transfer(msg.sender, amount);\r\n        // Update Map\r\n        cityMaps[msg.sender] = newMap;\r\n    }\r\n}\r\n",
  "sourcePath": "D:/dapps/crypto-city/contracts/CryptoCityMain.sol",
  "compiler": {
    "name": "solc",
    "version": "0.8.5+commit.a4f2e591.Emscripten.clang"
  },
  "schemaVersion": "3.4.1",
  "updatedAt": "2021-06-22T09:17:44.985Z",
  "devdoc": {
    "kind": "dev",
    "methods": {
      "owner()": {
        "details": "Returns the address of the current owner."
      },
      "renounceOwnership()": {
        "details": "Leaves the contract without owner. It will not be possible to call `onlyOwner` functions anymore. Can only be called by the current owner. NOTE: Renouncing ownership will leave the contract without an owner, thereby removing any functionality that is only available to the owner."
      },
      "transferOwnership(address)": {
        "details": "Transfers ownership of the contract to a new account (`newOwner`). Can only be called by the current owner."
      }
    },
    "version": 1
  },
  "userdoc": {
    "kind": "user",
    "methods": {},
    "version": 1
  }
}