{
  "contractName": "REFLECT",
  "abi": [
    {
      "inputs": [],
      "stateMutability": "nonpayable",
      "type": "constructor"
    },
    {
      "anonymous": false,
      "inputs": [
        {
          "indexed": true,
          "internalType": "address",
          "name": "previousOwner",
          "type": "address"
        },
        {
          "indexed": true,
          "internalType": "address",
          "name": "newOwner",
          "type": "address"
        }
      ],
      "name": "OwnershipTransferred",
      "type": "event"
    },
    {
      "inputs": [],
      "name": "owner",
      "outputs": [
        {
          "internalType": "address",
          "name": "",
          "type": "address"
        }
      ],
      "stateMutability": "view",
      "type": "function"
    },
    {
      "inputs": [],
      "name": "renounceOwnership",
      "outputs": [],
      "stateMutability": "nonpayable",
      "type": "function"
    },
    {
      "inputs": [
        {
          "internalType": "address",
          "name": "newOwner",
          "type": "address"
        }
      ],
      "name": "transferOwnership",
      "outputs": [],
      "stateMutability": "nonpayable",
      "type": "function"
    },
    {
      "inputs": [],
      "name": "name",
      "outputs": [
        {
          "internalType": "string",
          "name": "",
          "type": "string"
        }
      ],
      "stateMutability": "view",
      "type": "function"
    },
    {
      "inputs": [],
      "name": "symbol",
      "outputs": [
        {
          "internalType": "string",
          "name": "",
          "type": "string"
        }
      ],
      "stateMutability": "view",
      "type": "function"
    },
    {
      "inputs": [],
      "name": "decimals",
      "outputs": [
        {
          "internalType": "uint8",
          "name": "",
          "type": "uint8"
        }
      ],
      "stateMutability": "view",
      "type": "function"
    },
    {
      "inputs": [],
      "name": "totalSupply",
      "outputs": [
        {
          "internalType": "uint256",
          "name": "",
          "type": "uint256"
        }
      ],
      "stateMutability": "pure",
      "type": "function"
    },
    {
      "inputs": [
        {
          "internalType": "address",
          "name": "account",
          "type": "address"
        }
      ],
      "name": "balanceOf",
      "outputs": [
        {
          "internalType": "uint256",
          "name": "",
          "type": "uint256"
        }
      ],
      "stateMutability": "view",
      "type": "function"
    },
    {
      "inputs": [
        {
          "internalType": "address",
          "name": "account",
          "type": "address"
        }
      ],
      "name": "isExcluded",
      "outputs": [
        {
          "internalType": "bool",
          "name": "",
          "type": "bool"
        }
      ],
      "stateMutability": "view",
      "type": "function"
    },
    {
      "inputs": [],
      "name": "totalFees",
      "outputs": [
        {
          "internalType": "uint256",
          "name": "",
          "type": "uint256"
        }
      ],
      "stateMutability": "view",
      "type": "function"
    },
    {
      "inputs": [
        {
          "internalType": "uint256",
          "name": "tAmount",
          "type": "uint256"
        },
        {
          "internalType": "bool",
          "name": "deductTransferFee",
          "type": "bool"
        }
      ],
      "name": "reflectionFromToken",
      "outputs": [
        {
          "internalType": "uint256",
          "name": "",
          "type": "uint256"
        }
      ],
      "stateMutability": "view",
      "type": "function"
    },
    {
      "inputs": [
        {
          "internalType": "uint256",
          "name": "rAmount",
          "type": "uint256"
        }
      ],
      "name": "tokenFromReflection",
      "outputs": [
        {
          "internalType": "uint256",
          "name": "",
          "type": "uint256"
        }
      ],
      "stateMutability": "view",
      "type": "function"
    },
    {
      "inputs": [
        {
          "internalType": "address",
          "name": "account",
          "type": "address"
        }
      ],
      "name": "excludeAccount",
      "outputs": [],
      "stateMutability": "nonpayable",
      "type": "function"
    },
    {
      "inputs": [
        {
          "internalType": "address",
          "name": "account",
          "type": "address"
        }
      ],
      "name": "includeAccount",
      "outputs": [],
      "stateMutability": "nonpayable",
      "type": "function"
    }
  ],
  "bytecode": "0x6080604052662386f26fc10000600019816200001757fe5b06600019036006556040518060400160405280601981526020017f5374616b65642043727970746f204369747920546f6b656e7300000000000000815250600890805190602001906200006c929190620001e9565b506040518060400160405280600581526020017f734349545900000000000000000000000000000000000000000000000000000081525060099080519060200190620000ba929190620001e9565b506012600a60006101000a81548160ff021916908360ff160217905550348015620000e457600080fd5b506000620000f7620001e160201b60201c565b9050806000806101000a81548173ffffffffffffffffffffffffffffffffffffffff021916908373ffffffffffffffffffffffffffffffffffffffff1602179055508073ffffffffffffffffffffffffffffffffffffffff16600073ffffffffffffffffffffffffffffffffffffffff167f8be0079c531659141344cd1fd0a4f28419497f9722a3daafe3b4186f6b6457e060405160405180910390a350600654600160003073ffffffffffffffffffffffffffffffffffffffff1673ffffffffffffffffffffffffffffffffffffffff168152602001908152602001600020819055506200028f565b600033905090565b828054600181600116156101000203166002900490600052602060002090601f016020900481019282601f106200022c57805160ff19168380011785556200025d565b828001600101855582156200025d579182015b828111156200025c5782518255916020019190600101906200023f565b5b5090506200026c919062000270565b5090565b5b808211156200028b57600081600090555060010162000271565b5090565b611a03806200029f6000396000f3fe608060405234801561001057600080fd5b50600436106100ea5760003560e01c8063715018a61161008c578063cba0e99611610066578063cba0e99614610378578063f2cc0c18146103d2578063f2fde38b14610416578063f84354f11461045a576100ea565b8063715018a6146102b75780638da5cb5b146102c157806395d89b41146102f5576100ea565b80632d838119116100c85780632d838119146101ae578063313ce567146101f05780634549b0391461021157806370a082311461025f576100ea565b806306fdde03146100ef57806313114a9d1461017257806318160ddd14610190575b600080fd5b6100f761049e565b6040518080602001828103825283818151815260200191508051906020019080838360005b8381101561013757808201518184015260208101905061011c565b50505050905090810190601f1680156101645780820380516001836020036101000a031916815260200191505b509250505060405180910390f35b61017a610540565b6040518082815260200191505060405180910390f35b61019861054a565b6040518082815260200191505060405180910390f35b6101da600480360360208110156101c457600080fd5b8101908080359060200190929190505050610559565b6040518082815260200191505060405180910390f35b6101f86105dd565b604051808260ff16815260200191505060405180910390f35b6102496004803603604081101561022757600080fd5b81019080803590602001909291908035151590602001909291905050506105f4565b6040518082815260200191505060405180910390f35b6102a16004803603602081101561027557600080fd5b81019080803573ffffffffffffffffffffffffffffffffffffffff1690602001909291905050506106ae565b6040518082815260200191505060405180910390f35b6102bf610799565b005b6102c961091f565b604051808273ffffffffffffffffffffffffffffffffffffffff16815260200191505060405180910390f35b6102fd610948565b6040518080602001828103825283818151815260200191508051906020019080838360005b8381101561033d578082015181840152602081019050610322565b50505050905090810190601f16801561036a5780820380516001836020036101000a031916815260200191505b509250505060405180910390f35b6103ba6004803603602081101561038e57600080fd5b81019080803573ffffffffffffffffffffffffffffffffffffffff1690602001909291905050506109ea565b60405180821515815260200191505060405180910390f35b610414600480360360208110156103e857600080fd5b81019080803573ffffffffffffffffffffffffffffffffffffffff169060200190929190505050610a40565b005b6104586004803603602081101561042c57600080fd5b81019080803573ffffffffffffffffffffffffffffffffffffffff169060200190929190505050610d5a565b005b61049c6004803603602081101561047057600080fd5b81019080803573ffffffffffffffffffffffffffffffffffffffff169060200190929190505050610f65565b005b606060088054600181600116156101000203166002900480601f0160208091040260200160405190810160405280929190818152602001828054600181600116156101000203166002900480156105365780601f1061050b57610100808354040283529160200191610536565b820191906000526020600020905b81548152906001019060200180831161051957829003601f168201915b5050505050905090565b6000600754905090565b6000662386f26fc10000905090565b60006006548211156105b6576040517f08c379a000000000000000000000000000000000000000000000000000000000815260040180806020018281038252602a81526020018061195d602a913960400191505060405180910390fd5b60006105c06112ef565b90506105d5818461131a90919063ffffffff16565b915050919050565b6000600a60009054906101000a900460ff16905090565b6000662386f26fc10000831115610673576040517f08c379a000000000000000000000000000000000000000000000000000000000815260040180806020018281038252601f8152602001807f416d6f756e74206d757374206265206c657373207468616e20737570706c790081525060200191505060405180910390fd5b8161069257600061068384611364565b505050509050809150506106a8565b600061069d84611364565b505050915050809150505b92915050565b6000600460008373ffffffffffffffffffffffffffffffffffffffff1673ffffffffffffffffffffffffffffffffffffffff16815260200190815260200160002060009054906101000a900460ff161561074957600260008373ffffffffffffffffffffffffffffffffffffffff1673ffffffffffffffffffffffffffffffffffffffff168152602001908152602001600020549050610794565b610791600160008473ffffffffffffffffffffffffffffffffffffffff1673ffffffffffffffffffffffffffffffffffffffff16815260200190815260200160002054610559565b90505b919050565b6107a16113bc565b73ffffffffffffffffffffffffffffffffffffffff1660008054906101000a900473ffffffffffffffffffffffffffffffffffffffff1673ffffffffffffffffffffffffffffffffffffffff1614610861576040517f08c379a00000000000000000000000000000000000000000000000000000000081526004018080602001828103825260208152602001807f4f776e61626c653a2063616c6c6572206973206e6f7420746865206f776e657281525060200191505060405180910390fd5b600073ffffffffffffffffffffffffffffffffffffffff1660008054906101000a900473ffffffffffffffffffffffffffffffffffffffff1673ffffffffffffffffffffffffffffffffffffffff167f8be0079c531659141344cd1fd0a4f28419497f9722a3daafe3b4186f6b6457e060405160405180910390a360008060006101000a81548173ffffffffffffffffffffffffffffffffffffffff021916908373ffffffffffffffffffffffffffffffffffffffff160217905550565b60008060009054906101000a900473ffffffffffffffffffffffffffffffffffffffff16905090565b606060098054600181600116156101000203166002900480601f0160208091040260200160405190810160405280929190818152602001828054600181600116156101000203166002900480156109e05780601f106109b5576101008083540402835291602001916109e0565b820191906000526020600020905b8154815290600101906020018083116109c357829003601f168201915b5050505050905090565b6000600460008373ffffffffffffffffffffffffffffffffffffffff1673ffffffffffffffffffffffffffffffffffffffff16815260200190815260200160002060009054906101000a900460ff169050919050565b610a486113bc565b73ffffffffffffffffffffffffffffffffffffffff1660008054906101000a900473ffffffffffffffffffffffffffffffffffffffff1673ffffffffffffffffffffffffffffffffffffffff1614610b08576040517f08c379a00000000000000000000000000000000000000000000000000000000081526004018080602001828103825260208152602001807f4f776e61626c653a2063616c6c6572206973206e6f7420746865206f776e657281525060200191505060405180910390fd5b600460008273ffffffffffffffffffffffffffffffffffffffff1673ffffffffffffffffffffffffffffffffffffffff16815260200190815260200160002060009054906101000a900460ff1615610bc8576040517f08c379a000000000000000000000000000000000000000000000000000000000815260040180806020018281038252601b8152602001807f4163636f756e7420697320616c7265616479206578636c75646564000000000081525060200191505060405180910390fd5b6000600160008373ffffffffffffffffffffffffffffffffffffffff1673ffffffffffffffffffffffffffffffffffffffff168152602001908152602001600020541115610c9c57610c58600160008373ffffffffffffffffffffffffffffffffffffffff1673ffffffffffffffffffffffffffffffffffffffff16815260200190815260200160002054610559565b600260008373ffffffffffffffffffffffffffffffffffffffff1673ffffffffffffffffffffffffffffffffffffffff168152602001908152602001600020819055505b6001600460008373ffffffffffffffffffffffffffffffffffffffff1673ffffffffffffffffffffffffffffffffffffffff16815260200190815260200160002060006101000a81548160ff0219169083151502179055506005819080600181540180825580915050600190039060005260206000200160009091909190916101000a81548173ffffffffffffffffffffffffffffffffffffffff021916908373ffffffffffffffffffffffffffffffffffffffff16021790555050565b610d626113bc565b73ffffffffffffffffffffffffffffffffffffffff1660008054906101000a900473ffffffffffffffffffffffffffffffffffffffff1673ffffffffffffffffffffffffffffffffffffffff1614610e22576040517f08c379a00000000000000000000000000000000000000000000000000000000081526004018080602001828103825260208152602001807f4f776e61626c653a2063616c6c6572206973206e6f7420746865206f776e657281525060200191505060405180910390fd5b600073ffffffffffffffffffffffffffffffffffffffff168173ffffffffffffffffffffffffffffffffffffffff161415610ea8576040517f08c379a00000000000000000000000000000000000000000000000000000000081526004018080602001828103825260268152602001806119876026913960400191505060405180910390fd5b8073ffffffffffffffffffffffffffffffffffffffff1660008054906101000a900473ffffffffffffffffffffffffffffffffffffffff1673ffffffffffffffffffffffffffffffffffffffff167f8be0079c531659141344cd1fd0a4f28419497f9722a3daafe3b4186f6b6457e060405160405180910390a3806000806101000a81548173ffffffffffffffffffffffffffffffffffffffff021916908373ffffffffffffffffffffffffffffffffffffffff16021790555050565b610f6d6113bc565b73ffffffffffffffffffffffffffffffffffffffff1660008054906101000a900473ffffffffffffffffffffffffffffffffffffffff1673ffffffffffffffffffffffffffffffffffffffff161461102d576040517f08c379a00000000000000000000000000000000000000000000000000000000081526004018080602001828103825260208152602001807f4f776e61626c653a2063616c6c6572206973206e6f7420746865206f776e657281525060200191505060405180910390fd5b600460008273ffffffffffffffffffffffffffffffffffffffff1673ffffffffffffffffffffffffffffffffffffffff16815260200190815260200160002060009054906101000a900460ff166110ec576040517f08c379a000000000000000000000000000000000000000000000000000000000815260040180806020018281038252601b8152602001807f4163636f756e7420697320616c7265616479206578636c75646564000000000081525060200191505060405180910390fd5b60005b6005805490508110156112eb578173ffffffffffffffffffffffffffffffffffffffff166005828154811061112057fe5b9060005260206000200160009054906101000a900473ffffffffffffffffffffffffffffffffffffffff1673ffffffffffffffffffffffffffffffffffffffff1614156112de5760056001600580549050038154811061117c57fe5b9060005260206000200160009054906101000a900473ffffffffffffffffffffffffffffffffffffffff16600582815481106111b457fe5b9060005260206000200160006101000a81548173ffffffffffffffffffffffffffffffffffffffff021916908373ffffffffffffffffffffffffffffffffffffffff1602179055506000600260008473ffffffffffffffffffffffffffffffffffffffff1673ffffffffffffffffffffffffffffffffffffffff168152602001908152602001600020819055506000600460008473ffffffffffffffffffffffffffffffffffffffff1673ffffffffffffffffffffffffffffffffffffffff16815260200190815260200160002060006101000a81548160ff02191690831515021790555060058054806112a457fe5b6001900381819060005260206000200160006101000a81549073ffffffffffffffffffffffffffffffffffffffff021916905590556112eb565b80806001019150506110ef565b5050565b60008060006112fc6113c4565b91509150611313818361131a90919063ffffffff16565b9250505090565b600061135c83836040518060400160405280601a81526020017f536166654d6174683a206469766973696f6e206279207a65726f000000000000815250611669565b905092915050565b60008060008060008060006113788861172f565b9150915060006113866112ef565b905060008060006113988c868661176e565b92509250925082828288889a509a509a509a509a5050505050505091939590929450565b600033905090565b600080600060065490506000662386f26fc10000905060005b600580549050811015611622578260016000600584815481106113fc57fe5b9060005260206000200160009054906101000a900473ffffffffffffffffffffffffffffffffffffffff1673ffffffffffffffffffffffffffffffffffffffff1673ffffffffffffffffffffffffffffffffffffffff1681526020019081526020016000205411806114e3575081600260006005848154811061147b57fe5b9060005260206000200160009054906101000a900473ffffffffffffffffffffffffffffffffffffffff1673ffffffffffffffffffffffffffffffffffffffff1673ffffffffffffffffffffffffffffffffffffffff16815260200190815260200160002054115b156114ff57600654662386f26fc1000094509450505050611665565b611588600160006005848154811061151357fe5b9060005260206000200160009054906101000a900473ffffffffffffffffffffffffffffffffffffffff1673ffffffffffffffffffffffffffffffffffffffff1673ffffffffffffffffffffffffffffffffffffffff16815260200190815260200160002054846117cc90919063ffffffff16565b9250611613600260006005848154811061159e57fe5b9060005260206000200160009054906101000a900473ffffffffffffffffffffffffffffffffffffffff1673ffffffffffffffffffffffffffffffffffffffff1673ffffffffffffffffffffffffffffffffffffffff16815260200190815260200160002054836117cc90919063ffffffff16565b915080806001019150506113dd565b5061163f662386f26fc1000060065461131a90919063ffffffff16565b82101561165c57600654662386f26fc10000935093505050611665565b81819350935050505b9091565b60008083118290611715576040517f08c379a00000000000000000000000000000000000000000000000000000000081526004018080602001828103825283818151815260200191508051906020019080838360005b838110156116da5780820151818401526020810190506116bf565b50505050905090810190601f1680156117075780820380516001836020036101000a031916815260200191505b509250505060405180910390fd5b50600083858161172157fe5b049050809150509392505050565b600080600061174860648561131a90919063ffffffff16565b9050600061175f82866117cc90919063ffffffff16565b90508082935093505050915091565b600080600080611787858861181690919063ffffffff16565b9050600061179e868861181690919063ffffffff16565b905060006117b582846117cc90919063ffffffff16565b905082818395509550955050505093509350939050565b600061180e83836040518060400160405280601e81526020017f536166654d6174683a207375627472616374696f6e206f766572666c6f77000081525061189c565b905092915050565b6000808314156118295760009050611896565b600082840290508284828161183a57fe5b0414611891576040517f08c379a00000000000000000000000000000000000000000000000000000000081526004018080602001828103825260218152602001806119ad6021913960400191505060405180910390fd5b809150505b92915050565b6000838311158290611949576040517f08c379a00000000000000000000000000000000000000000000000000000000081526004018080602001828103825283818151815260200191508051906020019080838360005b8381101561190e5780820151818401526020810190506118f3565b50505050905090810190601f16801561193b5780820380516001836020036101000a031916815260200191505b509250505060405180910390fd5b506000838503905080915050939250505056fe416d6f756e74206d757374206265206c657373207468616e20746f74616c207265666c656374696f6e734f776e61626c653a206e6577206f776e657220697320746865207a65726f2061646472657373536166654d6174683a206d756c7469706c69636174696f6e206f766572666c6f77a26469706673582212201f34783218a6f9b6af036aec9020e20f930fae707f52bf9e693f0012e3b641cb64736f6c634300060c0033",
  "immutableReferences": {},
  "source": "// SPDX-License-Identifier: MIT\r\npragma solidity ^0.6.0;\r\n\r\n// import \"@openzeppelin/contracts/GSN/Context.sol\";\r\nimport \"@openzeppelin/contracts/token/ERC20/IERC20.sol\";\r\nimport \"@openzeppelin/contracts/math/SafeMath.sol\";\r\nimport \"@openzeppelin/contracts/utils/Address.sol\";\r\nimport \"@openzeppelin/contracts/access/Ownable.sol\";\r\n\r\ncontract REFLECT is Context, Ownable {\r\n    using SafeMath for uint256;\r\n    using Address for address;\r\n\r\n    mapping(address => uint256) private _rOwned;\r\n    mapping(address => uint256) private _tOwned;\r\n    mapping(address => mapping(address => uint256)) private _allowances;\r\n\r\n    mapping(address => bool) private _isExcluded;\r\n    address[] private _excluded;\r\n\r\n    uint256 private constant MAX = ~uint256(0);\r\n    uint256 private constant _tTotal = 10 * 10**6 * 10**9;\r\n    uint256 private _rTotal = (MAX - (MAX % _tTotal));\r\n    uint256 private _tFeeTotal;\r\n\r\n    string private _name = \"Staked Crypto City Tokens\";\r\n    string private _symbol = \"sCITY\";\r\n    uint8 private _decimals = 18;\r\n\r\n    constructor() public {\r\n        // Contract owns all the tokens\r\n        _rOwned[address(this)] = _rTotal;\r\n    }\r\n\r\n    function name() public view returns (string memory) {\r\n        return _name;\r\n    }\r\n\r\n    function symbol() public view returns (string memory) {\r\n        return _symbol;\r\n    }\r\n\r\n    function decimals() public view returns (uint8) {\r\n        return _decimals;\r\n    }\r\n\r\n    function totalSupply() public pure returns (uint256) {\r\n        return _tTotal;\r\n    }\r\n\r\n    function balanceOf(address account) public view returns (uint256) {\r\n        if (_isExcluded[account]) return _tOwned[account];\r\n        return tokenFromReflection(_rOwned[account]);\r\n    }\r\n\r\n    function transfer(address recipient, uint256 amount)\r\n        internal\r\n        returns (bool)\r\n    {\r\n        _transfer(msg.sender, recipient, amount);\r\n        return true;\r\n    }\r\n\r\n    function allowance(address owner, address spender)\r\n        internal\r\n        view\r\n        returns (uint256)\r\n    {\r\n        return _allowances[owner][spender];\r\n    }\r\n\r\n    function approve(address spender, uint256 amount) internal returns (bool) {\r\n        _approve(msg.sender, spender, amount);\r\n        return true;\r\n    }\r\n\r\n    function transferFrom(\r\n        address sender,\r\n        address recipient,\r\n        uint256 amount\r\n    ) internal returns (bool) {\r\n        _transfer(sender, recipient, amount);\r\n        _approve(\r\n            sender,\r\n            msg.sender,\r\n            _allowances[sender][msg.sender].sub(\r\n                amount,\r\n                \"ERC20: transfer amount exceeds allowance\"\r\n            )\r\n        );\r\n        return true;\r\n    }\r\n\r\n    function increaseAllowance(address spender, uint256 addedValue)\r\n        internal\r\n        returns (\r\n            // virtual\r\n            bool\r\n        )\r\n    {\r\n        _approve(\r\n            msg.sender,\r\n            spender,\r\n            _allowances[msg.sender][spender].add(addedValue)\r\n        );\r\n        return true;\r\n    }\r\n\r\n    function decreaseAllowance(address spender, uint256 subtractedValue)\r\n        internal\r\n        returns (bool)\r\n    {\r\n        _approve(\r\n            msg.sender,\r\n            spender,\r\n            _allowances[msg.sender][spender].sub(\r\n                subtractedValue,\r\n                \"ERC20: decreased allowance below zero\"\r\n            )\r\n        );\r\n        return true;\r\n    }\r\n\r\n    function isExcluded(address account) public view returns (bool) {\r\n        return _isExcluded[account];\r\n    }\r\n\r\n    function totalFees() public view returns (uint256) {\r\n        return _tFeeTotal;\r\n    }\r\n\r\n    function reflect(uint256 tAmount) private {\r\n        address sender = msg.sender;\r\n        require(\r\n            !_isExcluded[sender],\r\n            \"Excluded addresses cannot call this function\"\r\n        );\r\n        (uint256 rAmount, , , , ) = _getValues(tAmount);\r\n        _rOwned[sender] = _rOwned[sender].sub(rAmount);\r\n        _rTotal = _rTotal.sub(rAmount);\r\n        _tFeeTotal = _tFeeTotal.add(tAmount);\r\n    }\r\n\r\n    function reflectionFromToken(uint256 tAmount, bool deductTransferFee)\r\n        public\r\n        view\r\n        returns (uint256)\r\n    {\r\n        require(tAmount <= _tTotal, \"Amount must be less than supply\");\r\n        if (!deductTransferFee) {\r\n            (uint256 rAmount, , , , ) = _getValues(tAmount);\r\n            return rAmount;\r\n        } else {\r\n            (, uint256 rTransferAmount, , , ) = _getValues(tAmount);\r\n            return rTransferAmount;\r\n        }\r\n    }\r\n\r\n    function tokenFromReflection(uint256 rAmount)\r\n        public\r\n        view\r\n        returns (uint256)\r\n    {\r\n        require(\r\n            rAmount <= _rTotal,\r\n            \"Amount must be less than total reflections\"\r\n        );\r\n        uint256 currentRate = _getRate();\r\n        return rAmount.div(currentRate);\r\n    }\r\n\r\n    function excludeAccount(address account) external onlyOwner() {\r\n        require(!_isExcluded[account], \"Account is already excluded\");\r\n        if (_rOwned[account] > 0) {\r\n            _tOwned[account] = tokenFromReflection(_rOwned[account]);\r\n        }\r\n        _isExcluded[account] = true;\r\n        _excluded.push(account);\r\n    }\r\n\r\n    function includeAccount(address account) external onlyOwner() {\r\n        require(_isExcluded[account], \"Account is already excluded\");\r\n        for (uint256 i = 0; i < _excluded.length; i++) {\r\n            if (_excluded[i] == account) {\r\n                _excluded[i] = _excluded[_excluded.length - 1];\r\n                _tOwned[account] = 0;\r\n                _isExcluded[account] = false;\r\n                _excluded.pop();\r\n                break;\r\n            }\r\n        }\r\n    }\r\n\r\n    function _approve(\r\n        address owner,\r\n        address spender,\r\n        uint256 amount\r\n    ) private {\r\n        require(owner != address(0), \"ERC20: approve from the zero address\");\r\n        require(spender != address(0), \"ERC20: approve to the zero address\");\r\n\r\n        _allowances[owner][spender] = amount;\r\n    }\r\n\r\n    function _transfer(\r\n        address sender,\r\n        address recipient,\r\n        uint256 amount\r\n    ) private {\r\n        require(sender != address(0), \"ERC20: transfer from the zero address\");\r\n        require(recipient != address(0), \"ERC20: transfer to the zero address\");\r\n        require(amount > 0, \"Transfer amount must be greater than zero\");\r\n        if (_isExcluded[sender] && !_isExcluded[recipient]) {\r\n            _transferFromExcluded(sender, recipient, amount);\r\n        } else if (!_isExcluded[sender] && _isExcluded[recipient]) {\r\n            _transferToExcluded(sender, recipient, amount);\r\n        } else if (!_isExcluded[sender] && !_isExcluded[recipient]) {\r\n            _transferStandard(sender, recipient, amount);\r\n        } else if (_isExcluded[sender] && _isExcluded[recipient]) {\r\n            _transferBothExcluded(sender, recipient, amount);\r\n        } else {\r\n            _transferStandard(sender, recipient, amount);\r\n        }\r\n    }\r\n\r\n    function _transferStandard(\r\n        address sender,\r\n        address recipient,\r\n        uint256 tAmount\r\n    ) private {\r\n        (\r\n            uint256 rAmount,\r\n            uint256 rTransferAmount,\r\n            uint256 rFee,\r\n            uint256 tTransferAmount,\r\n            uint256 tFee\r\n        ) = _getValues(tAmount);\r\n        _rOwned[sender] = _rOwned[sender].sub(rAmount);\r\n        _rOwned[recipient] = _rOwned[recipient].add(rTransferAmount);\r\n        _reflectFee(rFee, tFee);\r\n    }\r\n\r\n    function _transferToExcluded(\r\n        address sender,\r\n        address recipient,\r\n        uint256 tAmount\r\n    ) private {\r\n        (\r\n            uint256 rAmount,\r\n            uint256 rTransferAmount,\r\n            uint256 rFee,\r\n            uint256 tTransferAmount,\r\n            uint256 tFee\r\n        ) = _getValues(tAmount);\r\n        _rOwned[sender] = _rOwned[sender].sub(rAmount);\r\n        _tOwned[recipient] = _tOwned[recipient].add(tTransferAmount);\r\n        _rOwned[recipient] = _rOwned[recipient].add(rTransferAmount);\r\n        _reflectFee(rFee, tFee);\r\n    }\r\n\r\n    function _transferFromExcluded(\r\n        address sender,\r\n        address recipient,\r\n        uint256 tAmount\r\n    ) private {\r\n        (\r\n            uint256 rAmount,\r\n            uint256 rTransferAmount,\r\n            uint256 rFee,\r\n            uint256 tTransferAmount,\r\n            uint256 tFee\r\n        ) = _getValues(tAmount);\r\n        _tOwned[sender] = _tOwned[sender].sub(tAmount);\r\n        _rOwned[sender] = _rOwned[sender].sub(rAmount);\r\n        _rOwned[recipient] = _rOwned[recipient].add(rTransferAmount);\r\n        _reflectFee(rFee, tFee);\r\n    }\r\n\r\n    function _transferBothExcluded(\r\n        address sender,\r\n        address recipient,\r\n        uint256 tAmount\r\n    ) private {\r\n        (\r\n            uint256 rAmount,\r\n            uint256 rTransferAmount,\r\n            uint256 rFee,\r\n            uint256 tTransferAmount,\r\n            uint256 tFee\r\n        ) = _getValues(tAmount);\r\n        _tOwned[sender] = _tOwned[sender].sub(tAmount);\r\n        _rOwned[sender] = _rOwned[sender].sub(rAmount);\r\n        _tOwned[recipient] = _tOwned[recipient].add(tTransferAmount);\r\n        _rOwned[recipient] = _rOwned[recipient].add(rTransferAmount);\r\n        _reflectFee(rFee, tFee);\r\n    }\r\n\r\n    function _reflectFee(uint256 rFee, uint256 tFee) private {\r\n        _rTotal = _rTotal.sub(rFee);\r\n        _tFeeTotal = _tFeeTotal.add(tFee);\r\n    }\r\n\r\n    function _getValues(uint256 tAmount)\r\n        private\r\n        view\r\n        returns (\r\n            uint256,\r\n            uint256,\r\n            uint256,\r\n            uint256,\r\n            uint256\r\n        )\r\n    {\r\n        (uint256 tTransferAmount, uint256 tFee) = _getTValues(tAmount);\r\n        uint256 currentRate = _getRate();\r\n        (uint256 rAmount, uint256 rTransferAmount, uint256 rFee) =\r\n            _getRValues(tAmount, tFee, currentRate);\r\n        return (rAmount, rTransferAmount, rFee, tTransferAmount, tFee);\r\n    }\r\n\r\n    function _getTValues(uint256 tAmount)\r\n        private\r\n        pure\r\n        returns (uint256, uint256)\r\n    {\r\n        uint256 tFee = tAmount.div(100);\r\n        uint256 tTransferAmount = tAmount.sub(tFee);\r\n        return (tTransferAmount, tFee);\r\n    }\r\n\r\n    function _getRValues(\r\n        uint256 tAmount,\r\n        uint256 tFee,\r\n        uint256 currentRate\r\n    )\r\n        private\r\n        pure\r\n        returns (\r\n            uint256,\r\n            uint256,\r\n            uint256\r\n        )\r\n    {\r\n        uint256 rAmount = tAmount.mul(currentRate);\r\n        uint256 rFee = tFee.mul(currentRate);\r\n        uint256 rTransferAmount = rAmount.sub(rFee);\r\n        return (rAmount, rTransferAmount, rFee);\r\n    }\r\n\r\n    function _getRate() private view returns (uint256) {\r\n        (uint256 rSupply, uint256 tSupply) = _getCurrentSupply();\r\n        return rSupply.div(tSupply);\r\n    }\r\n\r\n    function _getCurrentSupply() private view returns (uint256, uint256) {\r\n        uint256 rSupply = _rTotal;\r\n        uint256 tSupply = _tTotal;\r\n        for (uint256 i = 0; i < _excluded.length; i++) {\r\n            if (\r\n                _rOwned[_excluded[i]] > rSupply ||\r\n                _tOwned[_excluded[i]] > tSupply\r\n            ) return (_rTotal, _tTotal);\r\n            rSupply = rSupply.sub(_rOwned[_excluded[i]]);\r\n            tSupply = tSupply.sub(_tOwned[_excluded[i]]);\r\n        }\r\n        if (rSupply < _rTotal.div(_tTotal)) return (_rTotal, _tTotal);\r\n        return (rSupply, tSupply);\r\n    }\r\n}\r\n",
  "sourcePath": "D:\\dapps\\crypto-city-1\\contracts\\REFLECT.sol",
  "compiler": {
    "name": "solc",
    "version": "0.6.12+commit.27d51765.Emscripten.clang"
  },
  "schemaVersion": "3.4.1",
  "updatedAt": "2021-06-16T08:01:19.951Z",
  "devdoc": {
    "kind": "dev",
    "methods": {
      "owner()": {
        "details": "Returns the address of the current owner."
      },
      "renounceOwnership()": {
        "details": "Leaves the contract without owner. It will not be possible to call `onlyOwner` functions anymore. Can only be called by the current owner. NOTE: Renouncing ownership will leave the contract without an owner, thereby removing any functionality that is only available to the owner."
      },
      "transferOwnership(address)": {
        "details": "Transfers ownership of the contract to a new account (`newOwner`). Can only be called by the current owner."
      }
    },
    "version": 1
  },
  "userdoc": {
    "kind": "user",
    "methods": {},
    "version": 1
  }
}